:4000000000800020110000006D7C00006D7C000080B500AF024A034B1B68136007F02AFEBC760040FA4600400800022300000876080003230000107608000423000028768C
:4000400008000523000030760500062300002070050007230000307005000823000060700500FE230000707020000A220000005140000B220000305110000C220000C0513D
:400080001000FE220000F05100020E220000000080000F2200008002000210220000800380011122000000068001122200000008000213220000000E0004142200000018A5
:4000C0008000152200000041800016220000004300011722000000448000182200000046800019220000004700021A22000000480002FE220000004C07001C2300001052F1
:400100000C001D230000004F20001E23000070642000FE230000706508002023000000518000212300000002800022230000000A800023230000800A800024230000000C85
:40014000800025230000800C800026230000001480002723000080148000282300000016800029230000801610002A230000105010002B230000005080002C2300008047AC
:4001800080002D230000804680002E230000004580002F230000804580003023000000158000312300008015800032230000001780003323000080178000342300008009F2
:4001C0008000352300008007800036230000000B800037230000800B8000382300008005800039230000000D80003A230000800D80003B230000000380003C230000804321
:4002000080003D230000004280003E230000804280003F230000804180004023000000408000FE2300008040010000000100000001000000004801400100000000480040BD
:400240000100000000200140010000000020004010B5054C237833B9044B13B10448AFF300800123237010BD4081FF1F000000009C8B0000084B10B51BB108480849AFF3EC
:4002800000800848036803B910BD074B002BFBD0BDE81040184700BF000000009C8B00004481FF1F0881FF1F0000000090B591B006AF00F091F8414B1B681846012140F2F9
:4002C000E93201F037FF3D4B1B68184601F08AFB0346FB84394B1B68184601F091FB0346BB84374802F0D4F93862364802F0D0F9F8613548354906F005FF02463B1D18464E
:40030000114602F0FFF92D4B1A68B7F92640322300932F4B01933B6A0293002303934FF6FF73049300230593104605210522234601F0F8FF214B1A68B7F92640322300939A
:40034000244B0193FB690293002303934FF6FF73049300230593104605213722234601F0E1FF164B19683A1D96230093322301930023029300230393084611460522B4232E
:4003800002F01AFA0D4B1A681E2300934FF4784301931046B4217822282301F091FB074B1A684FF4806300931046DC219B22192301F076FD642000F02FF8FBE7E8D1FF1FD9
:4003C000C88B0000D88B0000E88B0000008C0000048C0000148C000080B500AF094B1B78002B00D00CE0074BFF221A7007F022FC00F00AF800F0C2F906F08EFD01F08AFAC1
:4004000080BD00BF5C81FF1F80B500AF00F0D0F800F078F880BD00BF80B584B000AF78607B68002B17D0B3F1FF3F02D100F09CF8FCE7786807F00EFCF86007F003FCB86085
:4004400000F092F807F0FEFB0246BB68D21AFB689A42F5D300E000BF1037BD4680BD00BF02460B462DE9F04FC2F814D0D3F814D0BDE8F08F80B483B000AF78607B6800227D
:400480005A607B685A687B681A600C37BD465DF8047B704780B483B000AF786039603B6800221A607B681B68002B07D07B685B683A681A607B683A685A6006E07B683A6815
:4004C0005A607B685A687B681A600C37BD465DF8047B704780B485B000AF78607B681B68002B01D1002307E07B681B68FB60FB681A687B681A60FB6818461437BD465DF8AB
:40050000047B704780B500AF0A48FFF7B3FF0A4B00221A60084B18229A60074B02225A60054B0022DA60044B00221A61034B024A1A6080BD6081FF1F7481FF1F7081FF1FF5
:4005400080B582B000AF02E0786800F0CFF80548FFF7C0FF78607B68002BF5D10837BD4680BD00BF6881FF1F80B582B000AFFFF7E7FF0D4B1B68002B00D112E00B4B1B6865
:400580007B6009487968FFF785FF0748FFF7A2FF0246064B1A60054B1B6878681946FFF75FFF0837BD4680BD6081FF1F7081FF1F80B500AF044B00221A6004484FF4A04189
:4005C00000F006F880BD00BF9081FF1F9881FF1F80B483B000AF786039603B680B2B00D820E0134B1B68002B04D0114B1B687A681A600AE00F4A7B6813600E4B1B680C4A8D
:4006000013600B4B1B680C4A1360094B1B6800221A60074B1B683A685A60054B1B68083300221A600C37BD465DF8047B704700BF9081FF1F9481FF1F8C81FF1FF0B482B064
:4006400000AF78607B68002B01D1002345E07B68033323F0030308337B600026214B1C6838E062687B689A4204D2264604F108031C682FE062687B680C339A4219D37B6860
:40068000E51823682B60256062687B68D31A6B607B686360144B1B68A34201D1124B1D6005F1080304F1080212681A6004F108031D60002E06D006F1080304F10802126834
:4006C0001A6004E004F108031B68064A136004F1080302E0002CC4D1002318460837BD46F0BC70479481FF1F9081FF1FF0B482B000AF78607B68002B00D137E07B68A3F161
:4007000008046368E21823689A4228D10026194B1D6822E02368AB421BD12B68236062686B6813446360002E06D006F1080305F1080212681A6004E005F108031B680D4A8D
:4007400013600D4B1B68AB4202D10B4B1C6006E005E02E4605F108031D68002DDAD104F10803044A12681A60024B1C600837BD46F0BC70479481FF1F9081FF1F80B400AF07
:40078000BD465DF8047B704790B587B000AF786039600023FB60FB683B61304B1B687B6114E07B695A687B689A4202D13B6901333B617B695B681A887B681B889A4202D19A
:4007C000FB680133FB607B691B687B617B69002BE7D17B685B681846FFF730FF78617B69002B01D1002334E07B685B68786900211A4608F0C0F97B697A685A607B689B68C4
:40080000002B0ED07B689C68786939683A69FB68A0470346002B04D17869FFF767FF002317E00E4B1B68002B04D00D4B1B687A691A6002E0094A7B691360094A7B69136070
:400840007B68DB68002B03D07B68DB68786998477B6918461C37BD4690BD00BF98D1FF1F9CD1FF1F80B485B000AF03463960FB800023BB600F4B1B68FB6011E0FB685B68B6
:400880001B88FA889A4208D1BA683B689A4201D1FB6809E0BB680133BB60FB681B68FB60FB68002BEAD1002318461437BD465DF8047B704798D1FF1FB0B588B002AFF8601C
:4008C000084611461A4603467B810B463B811346FB71FB689C69FB799DB2B7F90A10B7F90820BB6A0093FB6A0193F8682B46A0470346FB75FB7D002B10D1FB689C69FB689E
:400900001D8AB7F90A10B7F90820BB6A0093FB6A0193F8682B46A0470346FB75FB7D18461837BD46B0BD00BF80B584B000AF78600B46FB707B685B69FA7892B278681146B8
:4009400098470346FB73FB7B002B08D17B685B697A68128A7868114698470346FB73FB7B18461037BD4680BD80B400AF024B1846BD465DF8047B7047E8BA000080B487B0F1
:4009800000AF78600B467B8000237B6127E07B68D96A7A6913465B0013449B000B443B617B883A6912889B1AFB603B691B887A889A4211D33B695B881A46FB689A420BD961
:4009C0003B695A68FB685B0013441B887B813B699A687B8913440AE07B6901337B617B6893F82A301A467B699A42D0D8002318461C37BD465DF8047B704700BFB0B586B0B2
:400A000002AF78600B467B8013467B7028E07B685B88DAB27B689B88DBB2D31AFB737B68DC687B6899887B68DA887B681B6908B211B2FA7B7D7800932B46A047FB7B9BB2E9
:400A40007A88D31A7B807B681A887B689A807B68DB889BB29BB201339BB29AB27B68DA807B689B881AB27B881A447B685B881BB29A42CCDA7B88002B18D07B68DC687B68B8
:400A800098887B68D9887B88DAB27B681B6900B209B27D7800932B46A0477B689B889AB27B8813449BB29AB27B689A801037BD46B0BD00BF80B483B000AF78600B467B809D
:400AC0007B689B889AB27B8813449BB29AB27B689A8018E07B689B889AB27B681B8899B27B685B889BB2CB1A9BB213449BB29AB27B689A807B68DB889BB29BB201339BB206
:400B00009AB27B68DA807B689A887B685B8812B21BB29A42DEDA0C37BD465DF8047B704780B588B000AFF860B9601346FB71FB685A6AFB795B0013441B88BB83FB685A6AC4
:400B4000FB7901335B0013441A88BB8BD31A7B830023FB8358E0FB681B6AB98BFA8B0A4413441B787B767B7E03F0C003002B09D17B7E9BB203F03F039BB2B8681946FFF7A4
:400B800099FF3EE07B7E03F0C003402B0BD17B7E03F03F0301339BB29B019BB2B8681946FFF788FF2DE07B7E03F0C003802B0CD17B7E9BB203F03F039BB201339BB2B86848
:400BC0001946FF22FFF71AFF1BE07B7E03F0C003C02B16D17B7E03F03F031B11DBB201333B767B7E03F00F03DBB21A4612011344FB753B7E9AB2FB7DB86811461A46FFF70F
:400C0000FDFEFB8B0133FB83FA8B7B8B9A42A2D32037BD4680BD00BF80B483B000AF0346FB71FB79FB2B01D9022314E0FB79F32B01D903230FE0FB79E32B01D904230AE009
:400C4000FB79C32B01D9052305E0FB79832B01D9062300E0072318460C37BD465DF8047B704700BF80B586B000AFF860B9601346FB71FB791846FFF7CFFF0346FB75FB79FB
:400C8000043BBB7500237B751BE0BB7D03F00103002B03D07B7D01337B750FE07B7D002B08D07B7D9BB2B8681946FF22FFF7A6FE00237B75B8680121FFF7FCFEBB7D5B0825
:400CC000BB75FB7D5A1EFA75002BDED17B7D002B06D07B7D9BB2B8681946FF22FFF78EFE1837BD4680BD00BF80B584B000AFF860B9601346FB71FB790F2B0AD8FB791A462B
:400D000012011344DBB2B86801211A46FFF776FE20E0FB79102B04D1BB681A89BB68DA8018E0FB79172B15D9FA79FB6893F8283018339A4208DAFB79183BDBB2F868B968B6
:400D40001A46FFF7EDFE05E0FB79F868B9681A46FFF788FF1037BD4680BD00BF80B586B000AFF860B9601346FB71FB685A6AFB795B0013441B88BB82FB685A6AFB790133E9
:400D80005B0013441A88BB8AD31A7B820023FB8210E0FB681B6AB98AFA8A0A4413441B787B747B7CF868B9681A46FFF79DFFFB8A0133FB82FA8A7B8A9A42EAD31837BD4636
:400DC00080BD00BF80B584B000AFF860B9601346FB71FA79FB6893F8283018339A420FDBFA79FB6893F8293018339A4208DAFB79183BDBB2F868B9681A46FFF7AFFF05E05E
:400E0000FB79F868B9681A46FFF76EFF1037BD4680BD00BF80B58CB000AFF860084611461A4603467B810B463B811346FB807B89BB82FB681B7A9AB27B8913449BB29BB297
:400E4000FB827B893B833B897B83FB685B7A9AB23B8913449BB29BB2BB83BB6B3B62FB6B7B62FB88F8681946FFF788FDF862FB6A002B01D1002319E0FB6A5A1CFA621B7895
:400E800087F82B300AE0FB6A5A1CFA621B7807F11402F86811461A46FFF794FF7A8BBB8B12B21BB29A42EEDB97F82B3018463037BD4680BD80B584B000AF78600B467B804A
:400EC0007B8878681946FFF759FDF860FB68002B01D1002301E0FB681B7818461037BD4680BD00BF80B483B000AF78607B681B681B78002B01D1002305E07B681B68591C47
:400F00007A6811601B7818460C37BD465DF8047B704700BF80B483B000AF78607B681B685A1E7B681A600C37BD465DF8047B704780B584B000AF78600B467B8013463B8093
:400F400078686D21FFF7F0FC03469BB2DB009BB2FB8178682021FFF7E7FC03469AB23B8813449BB23B803A887B88D31A9AB27B681B7B9BB213449BB2BB81F989B7F90C3024
:400F8000B7F90E2093FBF2F002FB00F29B1A9BB2CB1A9AB23B8813449BB23B803B881BB218461037BD4680BD80B584B000AF78600B467B8013463B8078686D21FFF7B4FCC6
:400FC00003469BB2DB009BB2FB8178682021FFF7ABFC03463A889BB2D31A9BB23B807A883B88D31A9AB27B681B7B9BB213449BB2BB81B7F90C30B7F90E2093FBF2F102FBD0
:4010000001F29B1A9AB2FB89D31A9AB23B8813449BB23B803B881BB218461037BD4680BD80B586B000AFF860B96011461A460B46FB8013467B710023FB820023BB82FB8892
:40104000002B02D14FF6FF73FB8038E007F108031846FFF747FF03467B827B8A092B0BD1B7F91630F86800211A46FFF761FF0346FB822023BB8222E07B79002B11D0BB8A76
:40108000002B0ED0BB8ADAB27B8ADBB2F86811461A4600F04BFA03469AB2FB8A13449BB2FB827B8ADBB2F8681946FFF73DFC03469AB2FB8A13449BB2FB827B8ABB82FB88BD
:4010C0005A1EFA80002B03D0BB681B78002BBDD1FB8A1BB218461837BD4680BD80B586B000AFF8600B467A607B810023FB820023BB820023FB747B89002B02D14FF6FF736E
:401100007B811AE0FB8A0133FB8207F10C031846FFF7E8FE0346FB74FB7C202B0DD0FB7CA02B0AD0FB7C0A2B07D0FB7C0D2B04D0FB7C092B01D0FB8ABB827B895A1E7A8114
:40114000002B03D0FB681B78002BDBD17B68002B0AD0FB681B78002B03D17B6800221A7002E07B68FA7C1A70BB8A18461837BD4680BD00BF90B587B000AFF8607B600B46D3
:401180007B8113463B8100237B757A89FB681B7B9BB2D31A9BB2FB8239E03B1D1846FFF7A1FE03463B753B7D092B0DD1B7F90A20B7F91630F86811461A46FFF7B9FE034607
:4011C000FB8220237B7522E07B7D002B0CD07A7D3B7DF86811461A4600F0A8F903469AB2FB8A13449BB2FB82B7F91610B7F908203B7DFC6A084611461A463B6BA047034605
:401200009AB2FB8A13449BB2FB823B7D7B753B8D5A1E3A85002BC0D11C37BD4690BD00BF90B589B000AFF8607B600B467B8113463B810023FB760023BB8306E03B1D1846A4
:40124000FFF750FEBB8B0133BB83BA8B3B8E9A42F4D37A89FB681B7B9BB2D31A9BB2FB830023BB8348E03B1D1846FFF753FE7B687B6107F114031846FFF734FE0346BB766C
:40128000BB7E092B0DD1B7F90A20B7F91E30F86811461A46FFF788FE0346FB832023FB7627E0BB7EF8681946FFF73EFB0346FA8B9BB2D31A9BB2FB83FB7E002B0CD0BA7E44
:4012C000FB7EF86811461A4600F030F90346FA8B9BB2D31A9BB2FB83B7F91E10B7F90820BB7E7C6B084611461A46BB6BA047BB7EFB76BB8B0133BB83BA8B3B8E9A42B2D3B9
:401300002437BD4690BD00BF80B58AB004AFF860084611461A4603467B810B463B811346FB71BB8C386A19460022FFF7D7FE0346BB84FB79002B0DD1B7F90A10B7F90820D1
:40134000BB8C0093BB6A0193FB6A0293F8683B6AFFF710FFFB79012B22D1BB8CF868396A1A460023FFF75CFE0346FB827A89B7F91630D90F0B445B109BB29BB2D31A9BB2F1
:401380007B81B7F90A10B7F90820BB8C0093BB6A0193FB6A0293F8683B6AFFF7EBFE10E0FB79022B0DD1B7F90A10B7F90820BB8C0093BB6A0193FB6A0293F8683B6AFFF785
:4013C0002FFF1837BD4680BD90B484B000AF0446084611461A462346FB800346BB800B46FB701346BB70BB69FB60BB78072B12D9B7F90430FA68127C93FBF2F3FB72B7F9DF
:401400000630FA7AF9688A5C934204DAFB7AFA88D1B2FA68D1541037BD4690BC704700BF90B484B000AF0446084611461A462346FB800346BB800B46FB701346BB70BB69B9
:40144000FB60BB78072B1AD9B7F90430FA68127C93FBF2F3FB72FB789AB2FB8813449BB2013B9BB2FB80B7F90630FA7AF9688A5C934204DDFB7AFA88D1B2FA68D15410377C
:40148000BD4690BC704700BF80B483B000AF0346FB71FB79202B08D0FB790A2B05D0FB790D2B02D0FB79092B01D1002308E0FB792F2B04D9FB79392B01D8002300E0012301
:4014C00018460C37BD465DF8047B704780B483B000AF03460A46FB801346BB80B7F90420B7F906309342B8BF13469BB21BB218460C37BD465DF8047B704700BF80B483B031
:4015000000AF03460A46FB801346BB80B7F90620B7F904301344DA0F13445B109BB21BB218460C37BD465DF8047B704790B593B002AF78600B46FB701346BB707B68DB7BC5
:4015400003F00103002B01D00023FAE0FB781846FFF79AFF034683F00103DBB2002B09D1BB781846FFF790FF034683F00103DBB2002B01D00023E4E07B685B7A0F33002B5E
:4015800000DA0F331B1187F83F3097F83F30002B02D1012387F83F3097F83F303B773B7F87F83030002387F83F3014E097F83F3007F140021344FF2203F8202C97F83F30A4
:4015C00007F140021344002203F8342C97F83F30013387F83F3097F83F300F2BE6D9FC785A4B009307F10C0301937868002100222346FFF761F9034687F83B30BC78544B9D
:40160000009307F1200301937868002100222346FFF752F9034687F83A30FF2387F83E30002387F83F3036E097F83F3007F14002134413F8203CFF2B08D097F83F3007F145
:401640004002134413F8343C002B00D11EE097F83F3007F14002134413F8343C97F83B20D31ADAB297F83F3007F140010B4413F8203C134487F8393097F8392097F83E30DE
:401680009A4203D297F8393087F83E3097F83F30013387F83F3097F83F300F2BC4D997F83E30FF2B01D100234BE097F83B309AB297F83A309BB212B21BB210461946FFF790
:4016C0001DFF03461A4613461B019B1A214A82FB03125211DB17D31AFB86FB8E03339BB2FB86FA8E97F83E309BB2D31A9BB2BB8797F83B309AB297F83A309BB212B21BB243
:4017000010461946FFF7E2FE03461A466FF0130303FB02F30F4A82FB03125211DB17D31ABB86B7F93C30002B01DD0023BB87B7F93C20B7F934309A4201DABB8EBB87BB8F69
:40174000DBB25BB218464437BD4690BD21140000C91300001F85EB5180B582B000AF78607B680122DA857B68DA8D7B689A85786806F022F9786806F031F9786806F046F910
:4017800000BF0837BD4680BD80B582B000AF78607B681A8D7B681B8C12B21BB29A4217DB7B681A8D7B689B8C12B21BB29A420FDA7B685A8D7B685B8C12B21BB29A4207DBBD
:4017C0007B685A8D7B68DB8C12B21BB29A4200DB02E07868FFF7C0FF0837BD4680BD00BF80B584B000AF78607B689B8D1BB27A68D28D12B202FB03F3FB60786806F0DCF813
:4018000005E0786806F0EAF8FB68013BFB60FB68002BF6D1786806F0F9F800BF1037BD4680BD00BF80B582B000AF78607B681A8E7B681B8D12B21BB29A420BDA7B681A8D10
:401840007B689A857B681A8E7B681A857B689A8D7B681A867B685A8D7B685B8C12B21BB29A4207DB7B685A8D7B68DB8C12B21BB29A4200DB4AE07B681A8D7B681B8C12B28B
:401880001BB29A4203DA7B681A8C7B681A857B681A8E7B689B8C12B21BB29A4207DB7B689B8C9BB2013B9BB29AB27B681A867B681A8E7B681B8D12B21BB29A4200DA25E0A2
:4018C0007B681B8E9AB27B681B8D9BB2D31A9BB201339BB29AB27B689A857B680122DA85786806F069F8786806F078F87B689B8D9BB2013B9BB29AB27B689A857B689B8D13
:40190000002BF0D1786806F081F800BF0837BD4680BD00BF80B500AF054B5B8803F00103002B03D102480021FEF72EFF80BD00BF98F6000080B586B000AFF860B9607A60E6
:401940003B603B68DAB2FB681A777B68DAB2FB685A77FB680022DA83FB68BA685A61F86805F060FE0346FB75FB7D18461837BD4680BD00BF90B585B002AF78607B681A89CB
:401980007B685B8914B21BB20093786800210022234600F013FA78684FF6FF7100F05AF8044B1B68002B02D1024A7B6813600C37BD4690BDE8D1FF1F80B582B000AF786010
:4019C000074B1A687B689A4206D167200021FEF749FF0246024B1A600837BD4680BD00BFE8D1FF1F80B483B000AF78607B681B891BB218460C37BD465DF8047B704700BF44
:401A000080B483B000AF78607B685B891BB218460C37BD465DF8047B704700BF80B584B000AFF860084611461A4603467B810B463B811346FB80FB687A891A85FB683A8970
:401A40005A85FB68FA881A87F868FFF79DFE1037BD4680BD80B584B000AF78600B467B807B6800225A857B685A8D7B681A857B681A897B689A857B685A897B68DA857B68AA
:401A80007A881A877B689B8D1BB27A68D28D12B202FB03F3FB60786805F08EFF05E0786805F09CFFFB68013BFB60FB68002BF6D1786805F0ABFF00BF1037BD4680BD00BFCE
:401AC00080B584B000AFF860084611461A4603467B810B463B811346FB80FB687A891A85FB683A895A85FB68FA889A85FB683A8BDA85FB68BA8B1A87FB681A8DFB681B8C59
:401B000012B21BB29A4213DAFB689B8D9AB2FB681B8D99B2FB681B8C9BB2CB1A9BB213449BB29AB2FB689A85FB681A8CFB681A85FB685A8DFB685B8C12B21BB29A4213DA2A
:401B4000FB68DB8D9AB2FB685B8D99B2FB685B8C9BB2CB1A9BB213449BB29AB2FB68DA85FB685A8CFB685A85FB681B8D1AB2FB689B8D1BB21A44FB689B8C1BB29A420ADD0B
:401B8000FB689B8C9AB2FB681B8D9BB2D31A9BB29AB2FB689A85FB685B8D1AB2FB68DB8D1BB21A44FB68DB8C1BB29A420ADDFB68DB8C9AB2FB685B8D9BB2D31A9BB29AB254
:401BC000FB68DA85FB689B8D1BB2002B07DDFB68DB8D1BB2002B02DDF868FFF701FE1037BD4680BD80B584B000AFF860084611461A4603467B810B463B811346FB80FB6840
:401C00001B8CB7F90A201BB29A4216DA7A89FB681B8C9BB2D31A9AB2FB8813449BB2FB80FB681B8C9AB27B89D31A9AB2BB8B13449BB2BB83FB681B8C7B81FB685B8CB7F99A
:401C400008201BB29A4216DA3A89FB685B8C9BB2D31A9AB23B8B13449BB23B83FB685B8C9AB27B89D31A9AB23B8C13449BB23B84FB685B8C3B81B7F90A20B7F906301A44C7
:401C8000FB689B8C1BB29A4206DDFB689B8C9AB27B89D31A9BB2FB80B7F90820B7F918301A44FB68DB8C1BB29A4206DDFB68DB8C9AB23B89D31A9BB23B83B7F91C20B7F98D
:401CC00006301A44B7F924309A4204DDBA8CBB8BD31A9BB2FB80B7F90630002B03DDB7F91830002B00DC65E0B7F92030B7F9242002FB03F2B7F91C3013445B00BA6A13440A
:401D0000BB627A89FB8813449BB2BB833A893B8B13449BB23B84BA8CFB88D31A9BB2BB84FB687A891A85FB683A895A85FB68FA889A85FB683A8BDA85F86805F03DFEFB6868
:401D40003A895A852BE0FB687A891A8511E0BB6A9A1CBA621A88FB681A87F86805F03EFEFB681B8D9BB29BB201339BB29AB2FB681A85FB681B8DB7F91C201BB29A42E6DCBC
:401D8000FB685B8D9BB29BB201339BB29AB2FB685A85B7F924305B00BA6A1344BB62FB685B8DB7F920201BB29A42CCDCF86805F02DFE00BF1037BD4680BD00BF80B485B0BE
:401DC00000AFF860084611461A4603467B810B463B811346FB80B7F90A30002B06DAFA887B8913449BB2FB8000237B81B7F90830002B06DA3A8B3B8913449BB23B830023F7
:401E00003B81B7F90630002B11DDB7F91830002B0DDDFB681B89B7F90A201BB29A4206DAFB685B89B7F908201BB29A4207DB00233B833B8BFB80FB883B813B897B81FB6842
:401E40007A891A84FB683A895A847A89FB8813449BB29AB2FB689A84FB689A8CFB681B8912B21BB29A4203DDFB681A89FB689A843A893B8B13449BB29AB2FB68DA84FB68C5
:401E8000DA8CFB685B8912B21BB29A4203DDFB685A89FB68DA841437BD465DF8047B704780B586B000AFF860084611461A4603467B810B463B811346FB800123FB82FB8887
:401EC000BB82FB88C3F104039BB27B82FB683A8C1A87FB687A891A853A89BB8A13449BB29AB2FB685A85F868FFF74EFCFB687A891A853A89BB8AD31A9BB29AB2FB685A859F
:401F0000F868FFF741FC7A89BB8A13449BB29AB2FB681A85FB683A895A85F868FFF734FC7A89BB8AD31A9BB29AB2FB681A85FB683A895A85F868FFF727FC7A89FB8A13441C
:401F40009BB29AB2FB681A853A89BB8A13449BB29AB2FB685A85F868FFF716FC7A89FB8A13449BB29AB2FB681A853A89BB8AD31A9BB29AB2FB685A85F868FFF705FC7A8980
:401F8000BB8A13449BB29AB2FB681A853A89FB8A13449BB29AB2FB685A85F868FFF7F4FB7A89BB8AD31A9BB29AB2FB681A853A89FB8A13449BB29AB2FB685A85F868FFF78B
:401FC000E3FB7A89FB8AD31A9BB29AB2FB681A853A89BB8A13449BB29AB2FB685A85F868FFF7D2FB7A89FB8AD31A9BB29AB2FB681A853A89BB8AD31A9BB29AB2FB685A85B6
:40200000F868FFF7C1FB7A89BB8A13449BB29AB2FB681A853A89FB8AD31A9BB29AB2FB685A85F868FFF7B0FB7A89BB8AD31A9BB29AB2FB681A853A89FB8AD31A9BB29AB2A5
:40204000FB685A85F868FFF79FFBB7F91230002B0DDAFA8A93B201339BB2FB8213B25B0003339AB27B8A13449BB27B8213E0FA8A93B201339BB2FB8212B2B98A8BB2013BE1
:402080009BB2BB820BB2D31A5B0005339AB27B8A13449BB27B82B7F91620B7F914309A42FFF64BAF7A89FB8A13449BB29AB2FB681A853A89BB8A13449BB29AB2FB685A850E
:4020C000F868FFF761FB7A89FB8A13449BB29AB2FB681A853A89BB8AD31A9BB29AB2FB685A85F868FFF750FB7A89FB8AD31A9BB29AB2FB681A853A89BB8A13449BB29AB23B
:40210000FB685A85F868FFF73FFB7A89FB8AD31A9BB29AB2FB681A853A89BB8AD31A9BB29AB2FB685A85F868FFF72EFB1837BD4680BD00BF80B584B000AFF860B9607A60BD
:40214000BB689AB2FB681A85FB687A68DA63BB68012B25D17B689BB2B3F57A7F12D040F2E932934200D01BE0FB681A89FB685B8912B21BB29A4201DB002200E05A22FB6810
:40218000DA630DE0FB681A89FB685B8912B21BB29A4201DB5A2200E00022FB68DA6300BFF86805F073FCBB68012B0DD1FB6800221A84FB6800225A84FB681A89FB689A8484
:4021C000FB685A89FB68DA841037BD4680BD00BF90B583B000AF0446084611461A462346FB800346BB800B46FB701346BB70BB69B3F84A30B7F904201BB29A4219DBBB6996
:40220000B3F84E30B7F904201BB29A4211DAB7F90620FB781A44BB69B3F848301BB29A4207DDBB69B3F84C30B7F906201BB29A4200DB54E0BB69B3F84830B7F906201BB2CF
:402240009A420EDAFB88DAB2BB69B3F84830DBB2D31ADAB2FB781344FB70BB69B3F84830FB80B7F90620FB781A44BB69B3F84C301BB29A4207DDBB69B3F84C30DAB2FB886E
:40228000DBB2D31AFB70BB78FF2B05D1BB69B3F84420BB691A870FE0BB69B3F84410BB69B3F84620BB78084611461A4600F036F903461A46BB691A87BB69FA881A85BB6999
:4022C000BA885A85FB789AB2FB8813449BB2013B9BB29AB2BB691A86B869FFF7A3FA0C37BD4690BD90B587B002AF7B600346FB810B46BB811346FB727B68186CB7F90E10A2
:40230000B7F90C20FC7A064B00937B6801932346FEF7D2FA034618461437BD4690BD00BFD121000090B589B004AFF860084611461A4603467B810B463B811346FB80FB68BC
:40234000FA889A85FB683A8CDA85FB68BA6A1A64FB687A891A85FB681A8DFB68A3F84820FB683A895A85FB685A8DFB68A3F84A207A89FB8813449BB29AB2FB68A3F84C2023
:402380003A893B8C13449BB29AB2FB68A3F84E20FB68BA8DA3F84420FB683A8E1A87FB681A8FFB68A3F84620FB681A8DFB681B8C12B21BB29A4213DAFB689B8D9AB2FB68AA
:4023C0001B8D99B2FB681B8C9BB2CB1A9BB213449BB29AB2FB689A85FB681A8CFB681A85FB685A8DFB685B8C12B21BB29A4213DAFB68DB8D9AB2FB685B8D99B2FB685B8CFF
:402400009BB2CB1A9BB213449BB29AB2FB68DA85FB685A8CFB685A85FB681B8D1AB2FB689B8D1BB21A44FB689B8C1BB29A420ADDFB689B8C9AB2FB681B8D9BB2D31A9BB2D1
:402440009AB2FB689A85FB685B8D1AB2FB68DB8D1BB21A44FB68DB8C1BB29A420ADDFB68DB8C9AB2FB685B8D9BB2D31A9BB29AB2FB68DA85FB689B8D1BB2002B48DDFB6826
:40248000DB8D1BB2002B43DDF868FFF7A9F997F83430012B02D0022B0CD011E0B7F906300133DA0F13445B109AB27B8913449BB27B810DE07A89FB8813449BB27B8107E00A
:4024C000BB6A1B7B9AB27B8913449BB27B8100BFB7F920300133BA6A527A9B1ADA0F13445B109AB23B8913449BB23B81B7F90A10B7F9082097F834407B6A009300230193AA
:40250000054B0293FB680393B86A2346FEF7FCFE1437BD4690BD00BFE522000080B487B000AF0346FB800B46BB801346FB70FB789BB20133FB82FB789BB2C3F58073BB829B
:40254000FB8803F478431B129BB2FA8A02FB03F37B82FB8803F4FC63DB109BB2FA8A02FB03F33B82FB88DB009BB2DBB29BB2FA8A02FB03F3FB81BB8803F478431B129BB20C
:40258000BA8A02FB03F39AB27B8A13447B82BB8803F4FC63DB109BB2BA8A02FB03F39AB23B8A13443B82BB88DB009BB2DBB29BB2BA8A02FB03F39AB2FB891344FB817B8AEE
:4025C0001B0A7B823B8A1B0A3B82FB891B0AFB817B8A03F0F8031B029AB23B8A03F0FC03DB009BB213439AB2FB8903F0F803DB109BB213439BB29BB218461C37BD465DF86D
:40260000047B704780B483B000AF786039607B681B78002B1DD02A2B23D13B681B78002B08D17B6801331B78002B0CBF01230023DBB226E07B6801331A783B681B789A4297
:4026400003D17B6801337B601AE03B6801333B6016E03B681B78002B0CBF01230023DBB20FE03B681A787B681B789A4201D0002307E07B6801337B603B6801333B6000BFBE
:40268000C5E718460C37BD465DF8047B704700BF80B584B000AF7860FEF766F9F8600FE0FB685B681B6878681946FFF7ABFF0346002B02D0FB685B6820E0FB681B68FB60C0
:4026C000FB68002BECD1FEF74FF9F8600FE0FB685B685B6878681946FFF794FF0346002B02D0FB685B6809E0FB681B68FB60FB68002BECD1FEF738F903465B6818461037A2
:40270000BD4680BD80B584B000AF786039603B68002B02D148F2050346E07B683A68DA607B684FF6FF729A807B68214A1A611EE07B681B691B68786898470346FB81FB899C
:4027400048F20102934206D0FB891BB2002B00DA18E0FB8928E07B68DB681846002104F069FD7B681B6903F114027B681A617B681B69104A9342DBD348F20103FB817B68E8
:4027800000221A807B68DB68184604F0E9FC7B680022DA607B6800225A807B6800221A617B6800225A61FB8918461037BD4680BD0C81FF1F3481FF1FB0B588B004AFF86013
:4027C000B96011461A460B46FB801346BB80BB681B69002B02D148F201035FE0B7F92030002B03DDB7F92430002B01DC002355E0B7F92830002B01DA00233B85B7F92C301B
:40280000002B01DA0023BB85BB68DB88B7F928201BB29A4206DABB681B89B7F92C201BB29A4201DB002339E0B7F92820B7F920301A44BB68DB881BB29A4206DDBB68DB88B6
:402840009AB23B8DD31A9BB23B84B7F92C20B7F924301A44BB681B891BB29A4206DDBB681B899AB2BB8DD31A9BB2BB84BB681B69DC68B7F90620B7F90450B7F9203000936E
:40288000B7F924300193B7F928300293B7F92C300393F868B9682B46A047034618461037BD46B0BD80B582B000AF786039603868FDF7C4FE034618460837BD4680BD00BF48
:4028C00080B584B000AFF860B9607A60B868FDF70DFF1037BD4680BD80B586B000AF78607B685B693B613B691B8D03F500531E335B0078681946FFF7D5FFF860FB68002B67
:4029000002D148F20403CCE0FB6800221A703B691B8D002B49D03B691B8DDBB2013BDAB2FB685A70FB6803F580433C33FA6893617B68DA683B691B6B1046194604F07AFC19
:402940000023FB822BE07B68DA68FB681C3310461946032204F022FC0346032B00D093E0FB689A69FB8A5B001344FA68127F02F0F802120291B2FA68527F02F0FC02D20067
:4029800092B20A4391B2FA68927FD208D2B292B20A4392B292B21A80FB8A0133FB823B691B8DFA8A9A42CED310E03B699B68002B0BD03B699B88DBB2013BDAB2FB685A7056
:4029C0003B699A68FB689A6100E05DE07B68DA683B695B6B1046194604F02CFC7B68DA68FB68023310461946012204F0D7FB0346012B49D1FB689B780B2B45D8FB689B782D
:402A00001A46012393409AB2FB685A81FB685B8901339AB2FB689A81FB685B8902339AB2FB68DA81FB6841F202021A82FB689B780133DAB2FB68DA70FB68DB781A46012397
:402A400093409AB2FB68DA80FB6800221A71FB6800225A61FB6800221A810023FB820AE0FB8AFA681C335B00134441F202029A80FB8A0133FB82FB8AB3F5805FF0D33B699E
:402A8000FA689A6100230CE03B691B8D03F500531E335B007868F9681A46FFF711FF48F2020318461837BD4680BD00BF80B584B000AF78607B685B69FB60FB689B69002B51
:402AC0000FD0FB689A69FB681B8D03F500531E335B00786811461A46FFF7F2FEFB6800229A611037BD4680BD80B485B000AF78600B467B800023FB8110E07B88B3F5805FB6
:402B000002D341F2020313E0FB890133FB817B887A681C335B0013449B887B807B685B897A889A4203D9FB89B3F5805FE5D37B8818461437BD465DF8047B7047B0B586B044
:402B400000AF78607B685B693B613B699B69FB600023FB82FB681A8AFB689B899A4201D10023C8E1C2E1FB681B89002B16D0FB8A5A1CFA821946FB681B89013B9AB2FB685D
:402B80001A81FB681B891A46FB68134403F5405338331A79FB680B441A77A7E13BE0FB681B78002B0ED17B68DA68FB6810461946012204F0F3FA0346012B0FD1FB681B785E
:402BC000002B0BD07B68DA6807F1090310461946012204F0E3FA0346012B05D0FB689A89FB681A82FB8A86E1FB681B78013BDAB2FB681A70FB685A697B7A1946FB681B7926
:402C000001FA03F31A43FB685A61FB681B790833DAB2FB681A71FB681A79FB68DB789A42BDD3FB685B699AB2FB68DB7819468A4B33F8113013407B81FB685B69FA68D27879
:402C400023FA02F2FB685A61FB681A79FB68DB78D31ADAB2FB681A71FB68DB89B3F5805F1BD8FB68DB8901339AB2FB68DA81FB68DA89FB68DB889A420FD9FB68DB780B2B90
:402C80000BD8FB68DB885B009AB2FB68DA80FB68DB780133DAB2FB68DA70FB689B897A899A4222D17B68DC687B68DB68184604F0A9FA0246FB681B7813442046194604F0FB
:402CC000B9FA7B68DA68FB6810461946012204F065FA0346012B03D1FB681B78002BE1D1FB689A89FB681A8204E1FB685B897A899A422AD10023BB820AE0BB8AFA681C3387
:402D00005B00134441F202029A80BB8A0133BB82BB8AB3F5805FF0D3FB689B8901339AB2FB68DA81FB689B780133DAB2FB68DA70FB68DB781A46012393409AB2FB68DA808D
:402D4000FB6841F202021A82D0E0FB685B897A899A4209D2FB8A5A1CFA8219467B89DAB2FB680B441A7788E07B89FA681C335B0013449B8841F20202934202D07B89BB82B2
:402D800034E07A89FB68DB89023B9A422CD1FB681B89B3F5805F27D2FB681B8ABB82FB68DB899D1EFB681B895A1C91B2FA6811811C46FB681B8AF8681946FFF795FE034622
:402DC000DAB2FB68234403F5405338331A71FB68234403F5405338331A79FB682B4403F5005338331A7101E0002384E01AE0FB681B895A1C91B2FA6811811946BB8AFA687A
:402E0000134403F5005338331A79FB680B4403F5405338331A71BB8AFA681C335B0013449B88BB82FB681B89B3F5805F08D2FB685B89BA8A9A4203D9BB8AB3F5805FD6D397
:402E4000FB681B89B3F5805F03D2BB8AB3F5805F04D300234FE000BFF0BA0000FB681B895A1C91B2FA6811811946BB8ADAB2FB680B4403F5405338331A71FB681B8A41F23F
:402E8000020293422FD0FB68DB89023BFA681C335B0013449B8841F20202934223D1FB68DB89023BFA68118AFA681C335B0013440A469A80FB68DB899C1E7A89FB68DB8997
:402EC000023B9A4202D1FB681B8A00E07B89F8681946FFF709FE0346DAB2FB68234403F5005338331A71FB687A891A82FB8A1F2B7FF639AEFB8A18461837BD46B0BD00BFD0
:402F0000B0B586B000AF78607B685B693B613B6993F826203B6983F83C203B6993F827203B6983F83D203B699A8B3B69DA873B69DA8B3B69A3F840203B691A8C3B69A3F84B
:402F400042203B695A8C3B69A3F844203B691B697B611CE07B691C697B68DB68184604F051F903469C420FD13B697A6903F11C0415460FCD0FC495E80F0084E80F003B6940
:402F80007A695A61002335E27B699B6A7B617B69002B09D07B691C697B68DB68184604F031F903469C42D5D93B6900225A617B68DB68184604F026F903461A463B69DA620B
:402FC0003B69002283F826203B6900229A843B6900221A857B68DA6807F10F0310461946012204F0DBF80346012B02D048F2020300E2FB7B2C2B05D03B2B00F0D081212B36
:403000006FD0F3E17B68DA683B69463310461946092204F0C3F80346092B02D048F20203E8E13B6946331B889AB23B699A833B6948331B889AB23B69DA833B694A331B88B5
:403040009AB23B691A843B694C331B889AB23B695A843B694E331B78DBB25BB2002B0ADA3B694E331B7803F00703022202FA03F39AB23B691A853B694E331B7803F0400385
:40308000002B08D03B6993F8263043F00803DAB23B6983F826207B68DB68184604F0B2F803461A463B691A633B691A6B3B691B8D19460B465B000B441A443B695A633B693B
:4030C00000229A633B69DA6A3B69DB689A4206D07B685B8843F002039AB27B685A80002388E17B68DA6807F10F0310461946012204F054F80346012B02D048F2020379E176
:40310000FB7BF92B03D0FF2B00F09F801BE17B68DA683B69463310461946062204F03EF80346062B02D048F2020363E13B6946331B78042B05D13B69463305331B78002B0D
:4031400002D048F2020355E13B69463301331B7803F01C03102B39D801A252F823F000BFD3310000CD310000CD310000CD310000D3310000CD310000CD310000CD3100000B
:40318000A5310000CD310000CD310000CD310000B9310000CD310000CD310000CD310000B93100003B6993F8263043F00203DAB23B6983F826200DE03B6993F8263043F01E
:4031C0000403DAB23B6983F8262003E048F2030310E100BF3B69463301331B7803F00103002B0FD03B6993F8263043F00103DAB23B6983F826207B685B8843F001039AB229
:403200007B685A803B69463301331B7803F00203002B07D07B685B8843F004039AB27B685A8006E07B685B8823F004039AB27B685A803B69B3F848203B699A843B694A3381
:403240001A783B6983F82720A8E03B691B7803F00103002B00D07EE07B68DA683B69463310461946102203F099FF0346102B02D048F20203BEE03B6946331B780B2B07D0A3
:403280003B6952331B78032B02D048F20203B1E03B69463301331B784E2B53D13B6948331B78452B4ED13B69463303331B78542B48D13B694A331B78532B43D13B694633DF
:4032C00005331B78432B3DD13B694C331B78412B38D13B69463307331B78502B32D13B694E331B78452B2DD13B69463309331B78322B27D13B6950331B782E2B22D13B69E3
:4033000046330B331B78302B1CD13B6946330D331B78012B16D13B69B3F854203B695A803B691B7843F00103DAB23B691A703B695B88002B06D13B691B7843F00203DAB20B
:403340003B691A7007E0FB7BDBB25BB2002B02DB48F203034EE07B68DA6807F10E0310461946012203F01AFF0346012B02D048F202033FE0BB7B002B01D100BF0EE07B6838
:40338000DC687B68DB68184603F03CFF0246BB7B13442046194603F04DFFDCE729E03B691B7803F00103002B02D14FF6FF7321E03B691B7803F00203002B0CD13B695B88D0
:4033C000002B02D14FF6FF7314E03B695B88013B9AB23B695A807B68DA683B69DB681046194603F027FF4FF6FE7303E048F2030300E0EFE518461837BD46B0BD80B586B0A8
:4034000000AF78607B685B693B613B69002B34D03B691B697B6117E07B699B6AFB607B699B881BB27A69D28812B202FB03F31A467B699B895B0013442C33786879691A464D
:40344000FFF73EFAFB687B617B69002BE4D13B699B68002B09D03B699A683B699B885B00786811461A46FFF72BFA786839698822FFF726FA7B6800225A611837BD4680BD65
:4034800080B586B000AF78607B68DA6807F1080310461946062203F081FE0346062B02D048F20103E6E03B7A472B11D17B7A492B0ED1BB7A462B0BD1FB7A382B08D13B7B19
:4034C000372B02D03B7B392B02D17B7B612B02D048F20103CEE07B6800225A8078688821FFF7E0F902467B685A617B685B69002B02D148F20403BDE07B685B693B613B69E4
:4035000000221A703B6900229A803B6900229A603B69002283F826203B6900221A613B6900225A613B6900229A617B68DA683B69463310461946072203F030FE0346072B79
:4035400000D092E03B6946331B889AB27B68DA803B6948331B889AB27B681A813B694A331B78DBB25BB2002B51DA3B694A331B7803F00703022202FA03F39AB23B699A80BF
:403580003B699B885B0078681946FFF78BF902463B699A603B699B68002B00D15FE00023FB822FE07B68DA683B69463310461946032203F0F3FD0346032B00D055E03B699A
:4035C0009A68FB8A5B0013443A694632127802F0F802120291B23A6946320132127802F0FC02D20092B20A4391B23A6948321278D208D2B292B20A4392B292B21A80FB8AFF
:403600000133FB823B699B88FA8A9A42CAD33B69463305331A783B695A707B68DB68184603F0F0FD03461A463B69DA607868FFF767FC034648F2030293420AD048F2040225
:4036400093420CD0002B10D17B6802221A80002310E07868FFF7D2FE48F203030AE07868FFF7CCFE48F2040304E07868FFF7C6FE48F2020318461837BD4680BDB0B58AB0DF
:4036800000AF78607B685B693B613B695B69002B01D00023CCE23B691B8D16335B003A69128C12B23969498C09B201FB02F2134478681946FFF7F6F8F860FB68002B02D1C1
:4036C00048F20403B4E20023BB60FA683B69154603F11C040FCC0FC594E80F0085E80F00FB689B8916335B00FA681A44FB685A62FB6800229A627868FFF7EEF80346002BCF
:4037000005D048F20402934200F0628279E200BF3B699B69BB60FB689B89002B1CD0FB6803F12C02FB681A6200237B830EE0FB681A6A7B8B5B001344BA6891697A8B5200CB
:403740000A4412881A807B8B01337B83FB689B897A8B9A42EBD303E03B699A68FB681A6200237B8300233B62FB689B7A03F00803002B00F08781FB685B6A7B620023BB8321
:4037800051E00023FB8339E07B8B002B26D17868FFF7D4F903467B837B8B002B1BD1BB681A8ABB689B899A4200D02AE210E07B8B5A1C7A831946FB689B7A03F00103002BC7
:4037C00002D0FB68DA7A00E00022BB680B441A777B8B1F2BEBD9BB681C333B627B6A5A1C7A623A6A511C396212781A707B8B013B7B83FB8B9BB201339BB2FB83FB689B8889
:40380000B7F91E201BB29A42BEDBBB8B08339BB2BB83FB689B881AB21346DB009B1A1A467B6A13447B62FB68DB88B7F91C201BB29A42A6DBFB685B6AFA68928812B29200C2
:4038400013447B620423BB8351E00023FB8339E07B8B002B26D17868FFF770F903467B837B8B002B1BD1BB681A8ABB689B899A4200D0C6E110E07B8B5A1C7A831946FB686D
:403880009B7A03F00103002B02D0FB68DA7A00E00022BB680B441A777B8B1F2BEBD9BB681C333B627B6A5A1C7A623A6A511C396212781A707B8B013B7B83FB8B9BB20133E2
:4038C0009BB2FB83FB689B88B7F91E201BB29A42BEDBBB8B08339BB2BB83FB689B881AB21346DB009B1A1A467B6A13447B62FB68DB88B7F91C201BB29A42A6DBFB685B6A83
:40390000FA68928812B2520013447B620223BB8351E00023FB8339E07B8B002B26D17868FFF70CF903467B837B8B002B1BD1BB681A8ABB689B899A4200D062E110E07B8B19
:403940005A1C7A831946FB689B7A03F00103002B02D0FB68DA7A00E00022BB680B441A777B8B1F2BEBD9BB681C333B627B6A5A1C7A623A6A511C396212781A707B8B013BF1
:403980007B83FB8B9BB201339BB2FB83FB689B88B7F91E201BB29A42BEDBBB8B04339BB2BB83FB689B881AB213465B0013441A467B6A13447B62FB68DB88B7F91C201BB224
:4039C0009A42A6DBFB685A6AFB689B881BB213447B620123BB834DE00023FB8339E07B8B002B26D17868FFF7A9F803467B837B8B002B1BD1BB681A8ABB689B899A4200D0B6
:403A0000FFE010E07B8B5A1C7A831946FB689B7A03F00103002B02D0FB68DA7A00E00022BB680B441A777B8B1F2BEBD9BB681C333B627B6A5A1C7A623A6A511C3962127827
:403A40001A707B8B013B7B83FB8B9BB201339BB2FB83FB689B88B7F91E201BB29A42BEDBBB8B02339BB2BB83FB689B881BB27A6A13447B62FB68DB88B7F91C201BB29A4228
:403A8000AADB55E0FB685B6A7B620023BB8348E00023FB8339E07B8B002B26D17868FFF74DF803467B837B8B002B1BD1BB681A8ABB689B899A4200D0A3E010E07B8B5A1CB4
:403AC0007A831946FB689B7A03F00103002B02D0FB68DA7A00E00022BB680B441A777B8B1F2BEBD9BB681C333B627B6A5A1C7A623A6A511C396212781A707B8B013B7B83E8
:403B0000FB8B9BB201339BB2FB83FB689B88B7F91E201BB29A42BEDBBB8B9BB201339BB2BB83FB68DB88B7F91C201BB29A42AFDB00BF7868FFF702F80346002BF9D17B6816
:403B4000DB68184603F05EFB03461A46FB68DA61FB68DA693B699A633B69FA685A613B691B69002B03D13B69FA681A612BE03B691B691A69FB681B699A4207D93B691A69E1
:403B8000FB689A623B69FA681A611CE03B691B697B6115E07B699B6A002B06D07B699B6A1A69FB681B699A4207D97B699A6AFB689A627B69FA689A6205E07B699B6A7B6104
:403BC0007B69002BE6D17868FEF770FF00232FE000BF7868FEF76AFF3B691B8D16335B003A69128C12B23969498C09B201FB02F213447868F9681A46FEF762FE48F20403E7
:403C000016E07868FEF752FF3B691B8D16335B003A69128C12B23969498C09B201FB02F213447868F9681A46FEF74AFE48F2020318462837BD46B0BDB0B592B006AFF860FC
:403C4000B96011461A460B46FB801346BB800023FB62BB685B69FB61FB6993F83C3003F00603002B00F0C080FB69DB8F7B85FB69B3F840303B85FB69DB8F9AB2FB69B3F869
:403C800042309BB213449BB2FB84FB69B3F840309AB2FB69B3F844309BB213449BB2BB84B7F94820B7F92A309A4202DDB7F848307B85B7F94C20B7F928309A4202DDB7F812
:403CC0004C303B85B7F94820B7F940301A44B7F926309A4206DCB7F84820B7F8403013449BB2FB84B7F94C20B7F944301A44B7F924309A4206DCB7F84C20B7F844301344E0
:403D00009BB2BB84B7F92620B7F92A309A426BDDB7F92420B7F928309A4265DDFB6993F83C3003F00103002B06D1FB695B789AB2FB699B889A4229D3FA887B8D13449AB256
:403D4000B7F84830D31A9BB299B2BA883B8D13449AB2B7F84C30D31A9BB29CB2FA8C7B8DD31A9BB298B2BA8C3B8DD31A9BB29AB2BB689B8809B225B204B212B20092019319
:403D8000F8682A462346FDF79BFE2DE0FA887B8D13449AB2B7F84830D31A9BB299B2BA883B8D13449AB2B7F84C30D31A9BB29DB2FA8C7B8DD31A9BB29CB2BA8C3B8DD31AE5
:403DC0009BB298B2FB699A68FB695B785B0013441B8809B22DB224B202B200920193F8682A462346FDF76CFEFB699B8B9AB2FB691B8C9BB213449BB2FB84FB69DB8B9AB2F2
:403E0000FB695B8C9BB213449BB2BB84B7F94820B7F926309A4219DAB7F94C20B7F924309A4213DAB7F94820B7F940301A44FB699B8B1BB29A4209DBB7F94C20B7F9443044
:403E40001A44FB69DB8B1BB29A4202DA002301F044BAFB699B8BB7F948201BB29A4217DAFB699B8B9AB2B7F84830D31A9BB27B85FA887B8D13449BB2FB80B7F840207B8D50
:403E8000D31A9BB2A7F84030FB699B8BA7F84830FB69DB8BB7F94C201BB29A4217DAFB69DB8B9AB2B7F84C30D31A9BB23B85BA883B8D13449BB2BB80B7F844203B8DD31AAC
:403EC0009BB2A7F84430FB69DB8BA7F84C30B7F94820B7F940301A44B7F926309A4206DDFA8CB7F84830D31A9BB2A7F84030B7F94C20B7F944301A44B7F924309A4206DDCB
:403F0000BA8CB7F84C30D31A9BB2A7F84430B7F84820FB699B8B9BB2D31A9BB2A7F84830B7F84C20FB69DB8B9BB2D31A9BB2A7F84C30B7F84820B7F8403013449BB2FB84A4
:403F4000B7F84C20B7F8443013449BB2BB84FB695B69002B00F03A81FB695B69BB61BB695A6AFB691B8C1BB2B7F94C1001FB03F31946B7F948300B441344FB62B7F84C306B
:403F80003B8519E100233B84B7F848307B8500237B84ACE0FB6A5A1CFA621B78FB75FB6993F8263003F00103002B59D0FB6993F82730FA7D9A4253D13B8C002B4ED0012BCD
:403FC0001FD1FA887B8D13449AB2B7F84830D31A9AB23B8CD31A9BB299B2BA883B8D13449AB2B7F84C30D31A9BB29AB2FB69B3F8463009B212B2F868FDF710FD00233B8453
:404000002DE0FA887B8D13449AB2B7F84830D31A9AB23B8CD31A9BB299B2BA883B8D13449AB2B7F84C30D31A9BB29CB23A8C388CFB69463309B225B214B2012200920022A4
:4040400001920022029202B203920493F8682A462346FDF7C7FD00233B8400E000BF41E03B8C5A1C3A841846BB691A6AFB7D5B0013441988FA6900F120035B0013440A463F
:40408000DA803B8C1F2B2DD9FA887B8D13449AB2B7F84830D31A9AB23B8CD31A9BB201339BB299B2BA883B8D13449AB2B7F84C30D31A9BB29CB23A8C388CFB69463309B2B3
:4040C00025B214B201220092002201920022029202B203920493F8682A462346FDF782FD00233B847B8D9BB201339BB27B85B7F92A20B7F926309A42FFF64CAF3B8C002B01
:404100004AD0012B1DD1FA887B8D13449AB2B7F84830D31A9AB23B8CD31A9BB299B2BA883B8D13449AB2B7F84C30D31A9BB29AB2FB69B3F8463009B212B2F868FDF76EFC52
:404140002BE0FA887B8D13449AB2B7F84830D31A9AB23B8CD31A9BB299B2BA883B8D13449AB2B7F84C30D31A9BB29CB23A8C388CFB69463309B225B214B201220092002265
:4041800001920022029202B203920493F8682A462346FDF727FD00E000BF3B8D9BB201339BB23B85FB691B8C1AB2B7F94030D31A1A46FB6A1344FB62B7F92820B7F9243037
:4041C0009A42FFF6DFAE002301F087B8B868FEF783FB0346002B0BD048F20402934203D148F2040301F079B848F2020301F075B800BFFB699B693B6100237B84FB6993F8AF
:40420000263003F00803002B00F0A48600233B859DE100233B8400237B853DE17B8C002B18D1B868FEF78AFC03467B847B8C002B0DD13B691A8A3B699B899A4201D001F0A5
:4042400047B87B8D9BB201339BB27B852CE13B691C33FB62B7F92820B7F94C309A42C0F2BD80B7F92820B7F924309A4280F2B680B7F92A20B7F948309A42C0F2AF80B7F90E
:404280002A20B7F926309A4280F2A880FB6A1B78FB75FB6993F8263003F00103002B59D0FB6993F82730FA7D9A4253D13B8C002B4ED0012B1FD1FA887B8D13449AB2B7F87B
:4042C0004830D31A9AB23B8CD31A9BB299B2BA883B8D13449AB2B7F84C30D31A9BB29AB2FB69B3F8463009B212B2F868FDF796FB00233B842DE0FA887B8D13449AB2B7F8AF
:404300004830D31A9AB23B8CD31A9BB299B2BA883B8D13449AB2B7F84C30D31A9BB29CB23A8C388CFB69463309B225B214B201220092002201920022029202B20392049361
:40434000F8682A462346FDF74DFC00233B8400E000BF96E03B8C5A1C3A8418463B699A69FB7D5B0013441988FA6900F120035B0013440A46DA803B8C1F2B2ED9FA887B8D90
:4043800013449AB2B7F84830D31A9AB23B8CD31A9BB201339BB299B2BA883B8D13449AB2B7F84C30D31A9BB29CB23A8C388CFB69463309B225B214B20122009200220192A4
:4043C0000022029202B203920493F8682A462346FDF708FC00233B8453E052E03B8C002B4ED0012B1FD1FA887B8D13449AB2B7F84830D31A9AB23B8CD31A9BB299B2BA8868
:404400003B8D13449AB2B7F84C30D31A9BB29AB2FB69B3F8463009B212B2F868FDF7FEFA00233B842DE0FA887B8D13449AB2B7F84830D31A9AB23B8CD31A9BB299B2BA8806
:404440003B8D13449AB2B7F84C30D31A9BB29CB23A8C388CFB69463309B225B214B201220092002201920022029202B203920493F8682A462346FDF7B5FB00233B8400E0C0
:4044800000BF7B8D9BB201339BB27B85FB6A0133FB627B8C013B7B84FB691B8CB7F92A201BB29A42FFF6BAAE3B8C002B4AD0012B1DD1FA887B8D13449AB2B7F84830D31ABD
:4044C0009AB23B8CD31A9BB299B2BA883B8D13449AB2B7F84C30D31A9BB29AB2FB69B3F8463009B212B2F868FDF798FA2BE0FA887B8D13449AB2B7F84830D31A9AB23B8C7D
:40450000D31A9BB299B2BA883B8D13449AB2B7F84C30D31A9BB29CB23A8C388CFB69463309B225B214B201220092002201920022029202B203920493F8682A462346FDF7AA
:4045400051FB00E000BF3B8D08339BB23B85FB695B8CB7F928201BB29A42FFF65AAE04233B859DE100233B8400237B853DE17B8C002B18D1B868FEF7E1FA03467B847B8C75
:40458000002B0DD13B691A8A3B699B899A4201D000F09EBE7B8D9BB201339BB27B852CE13B691C33FB62B7F92820B7F94C309A42C0F2BD80B7F92820B7F924309A4280F27D
:4045C000B680B7F92A20B7F948309A42C0F2AF80B7F92A20B7F926309A4280F2A880FB6A1B78FB75FB6993F8263003F00103002B59D0FB6993F82730FA7D9A4253D13B8CB4
:40460000002B4ED0012B1FD1FA887B8D13449AB2B7F84830D31A9AB23B8CD31A9BB299B2BA883B8D13449AB2B7F84C30D31A9BB29AB2FB69B3F8463009B212B2F868FDF786
:40464000EDF900233B842DE0FA887B8D13449AB2B7F84830D31A9AB23B8CD31A9BB299B2BA883B8D13449AB2B7F84C30D31A9BB29CB23A8C388CFB69463309B225B214B26D
:4046800001220092002201920022029202B203920493F8682A462346FDF7A4FA00233B8400E000BF96E03B8C5A1C3A8418463B699A69FB7D5B0013441988FA6900F12003F6
:4046C0005B0013440A46DA803B8C1F2B2ED9FA887B8D13449AB2B7F84830D31A9AB23B8CD31A9BB201339BB299B2BA883B8D13449AB2B7F84C30D31A9BB29CB23A8C388C02
:40470000FB69463309B225B214B201220092002201920022029202B203920493F8682A462346FDF75FFA00233B8453E052E03B8C002B4ED0012B1FD1FA887B8D13449AB21E
:40474000B7F84830D31A9AB23B8CD31A9BB299B2BA883B8D13449AB2B7F84C30D31A9BB29AB2FB69B3F8463009B212B2F868FDF755F900233B842DE0FA887B8D13449AB26D
:40478000B7F84830D31A9AB23B8CD31A9BB299B2BA883B8D13449AB2B7F84C30D31A9BB29CB23A8C388CFB69463309B225B214B201220092002201920022029202B20392C5
:4047C0000493F8682A462346FDF70CFA00233B8400E000BF7B8D9BB201339BB27B85FB6A0133FB627B8C013B7B84FB691B8CB7F92A201BB29A42FFF6BAAE3B8C002B4AD049
:40480000012B1DD1FA887B8D13449AB2B7F84830D31A9AB23B8CD31A9BB299B2BA883B8D13449AB2B7F84C30D31A9BB29AB2FB69B3F8463009B212B2F868FDF7EFF82BE0DD
:40484000FA887B8D13449AB2B7F84830D31A9AB23B8CD31A9BB299B2BA883B8D13449AB2B7F84C30D31A9BB29CB23A8C388CFB69463309B225B214B20122009200220192D6
:404880000022029202B203920493F8682A462346FDF7A8F900E000BF3B8D08339BB23B85FB695B8CB7F928201BB29A42FFF65AAE02233B859DE100233B8400237B853DE176
:4048C0007B8C002B18D1B868FEF738F903467B847B8C002B0DD13B691A8A3B699B899A4201D000F0F5BC7B8D9BB201339BB27B852CE13B691C33FB62B7F92820B7F94C304A
:404900009A42C0F2BD80B7F92820B7F924309A4280F2B680B7F92A20B7F948309A42C0F2AF80B7F92A20B7F926309A4280F2A880FB6A1B78FB75FB6993F8263003F0010333
:40494000002B59D0FB6993F82730FA7D9A4253D13B8C002B4ED0012B1FD1FA887B8D13449AB2B7F84830D31A9AB23B8CD31A9BB299B2BA883B8D13449AB2B7F84C30D31A5C
:404980009BB29AB2FB69B3F8463009B212B2F868FDF744F800233B842DE0FA887B8D13449AB2B7F84830D31A9AB23B8CD31A9BB299B2BA883B8D13449AB2B7F84C30D31A3D
:4049C0009BB29CB23A8C388CFB69463309B225B214B201220092002201920022029202B203920493F8682A462346FDF7FBF800233B8400E000BF96E03B8C5A1C3A841846ED
:404A00003B699A69FB7D5B0013441988FA6900F120035B0013440A46DA803B8C1F2B2ED9FA887B8D13449AB2B7F84830D31A9AB23B8CD31A9BB201339BB299B2BA883B8DB5
:404A400013449AB2B7F84C30D31A9BB29CB23A8C388CFB69463309B225B214B201220092002201920022029202B203920493F8682A462346FDF7B6F800233B8453E052E0FF
:404A80003B8C002B4ED0012B1FD1FA887B8D13449AB2B7F84830D31A9AB23B8CD31A9BB299B2BA883B8D13449AB2B7F84C30D31A9BB29AB2FB69B3F8463009B212B2F8682F
:404AC000FCF7ACFF00233B842DE0FA887B8D13449AB2B7F84830D31A9AB23B8CD31A9BB299B2BA883B8D13449AB2B7F84C30D31A9BB29CB23A8C388CFB69463309B225B2F7
:404B000014B201220092002201920022029202B203920493F8682A462346FDF763F800233B8400E000BF7B8D9BB201339BB27B85FB6A0133FB627B8C013B7B84FB691B8C8D
:404B4000B7F92A201BB29A42FFF6BAAE3B8C002B4AD0012B1DD1FA887B8D13449AB2B7F84830D31A9AB23B8CD31A9BB299B2BA883B8D13449AB2B7F84C30D31A9BB29AB2D8
:404B8000FB69B3F8463009B212B2F868FCF746FF2BE0FA887B8D13449AB2B7F84830D31A9AB23B8CD31A9BB299B2BA883B8D13449AB2B7F84C30D31A9BB29CB23A8C388C8B
:404BC000FB69463309B225B214B201220092002201920022029202B203920493F8682A462346FCF7FFFF00E000BF3B8D04339BB23B85FB695B8CB7F928201BB29A42FFF6CA
:404C00005AAE01233B859CE100233B8400237B853CE17B8C002B17D1B868FDF78FFF03467B847B8C002B0CD13B691A8A3B699B899A4200D04CE37B8D9BB201339BB27B8515
:404C40002CE13B691C33FB62B7F92820B7F94C309A42C0F2BD80B7F92820B7F924309A4280F2B680B7F92A20B7F948309A42C0F2AF80B7F92A20B7F926309A4280F2A88013
:404C8000FB6A1B78FB75FB6993F8263003F00103002B59D0FB6993F82730FA7D9A4253D13B8C002B4ED0012B1FD1FA887B8D13449AB2B7F84830D31A9AB23B8CD31A9BB285
:404CC00099B2BA883B8D13449AB2B7F84C30D31A9BB29AB2FB69B3F8463009B212B2F868FCF79CFE00233B842DE0FA887B8D13449AB2B7F84830D31A9AB23B8CD31A9BB29D
:404D000099B2BA883B8D13449AB2B7F84C30D31A9BB29CB23A8C388CFB69463309B225B214B201220092002201920022029202B203920493F8682A462346FCF753FF002368
:404D40003B8400E000BF96E03B8C5A1C3A8418463B699A69FB7D5B0013441988FA6900F120035B0013440A46DA803B8C1F2B2ED9FA887B8D13449AB2B7F84830D31A9AB21C
:404D80003B8CD31A9BB201339BB299B2BA883B8D13449AB2B7F84C30D31A9BB29CB23A8C388CFB69463309B225B214B201220092002201920022029202B203920493F868A7
:404DC0002A462346FCF70EFF00233B8453E052E03B8C002B4ED0012B1FD1FA887B8D13449AB2B7F84830D31A9AB23B8CD31A9BB299B2BA883B8D13449AB2B7F84C30D31AC9
:404E00009BB29AB2FB69B3F8463009B212B2F868FCF704FE00233B842DE0FA887B8D13449AB2B7F84830D31A9AB23B8CD31A9BB299B2BA883B8D13449AB2B7F84C30D31AF3
:404E40009BB29CB23A8C388CFB69463309B225B214B201220092002201920022029202B203920493F8682A462346FCF7BBFE00233B8400E000BF7B8D9BB201339BB27B859C
:404E8000FB6A0133FB627B8C013B7B84FB691B8CB7F92A201BB29A42FFF6BBAE3B8C002B4AD0012B1DD1FA887B8D13449AB2B7F84830D31A9AB23B8CD31A9BB299B2BA886D
:404EC0003B8D13449AB2B7F84C30D31A9BB29AB2FB69B3F8463009B212B2F868FCF79EFD2BE0FA887B8D13449AB2B7F84830D31A9AB23B8CD31A9BB299B2BA883B8D13445F
:404F00009AB2B7F84C30D31A9BB29CB23A8C388CFB69463309B225B214B201220092002201920022029202B203920493F8682A462346FCF757FE00E000BF3B8D02339BB249
:404F40003B85FB695B8CB7F928201BB29A42FFF65BAEA8E100233B859DE100233B8400237B853CE17B8C002B17D1B868FDF7E6FD03467B847B8C002B0CD13B691A8A3B6927
:404F80009B899A4200D0A3E17B8D9BB201339BB27B852CE13B691C33FB62B7F92820B7F94C309A42C0F2BD80B7F92820B7F924309A4280F2B680B7F92A20B7F948309A42FD
:404FC000C0F2AF80B7F92A20B7F926309A4280F2A880FB6A1B78FB75FB6993F8263003F00103002B59D0FB6993F82730FA7D9A4253D13B8C002B4ED0012B1FD1FA887B8DEF
:4050000013449AB2B7F84830D31A9AB23B8CD31A9BB299B2BA883B8D13449AB2B7F84C30D31A9BB29AB2FB69B3F8463009B212B2F868FCF7F3FC00233B842DE0FA887B8D04
:4050400013449AB2B7F84830D31A9AB23B8CD31A9BB299B2BA883B8D13449AB2B7F84C30D31A9BB29CB23A8C388CFB69463309B225B214B2012200920022019200220292A2
:4050800002B203920493F8682A462346FCF7AAFD00233B8400E000BF96E03B8C5A1C3A8418463B699A69FB7D5B0013441988FA6900F120035B0013440A46DA803B8C1F2B97
:4050C0002ED9FA887B8D13449AB2B7F84830D31A9AB23B8CD31A9BB201339BB299B2BA883B8D13449AB2B7F84C30D31A9BB29CB23A8C388CFB69463309B225B214B201220D
:405100000092002201920022029202B203920493F8682A462346FCF765FD00233B8453E052E03B8C002B4ED0012B1FD1FA887B8D13449AB2B7F84830D31A9AB23B8CD31A50
:405140009BB299B2BA883B8D13449AB2B7F84C30D31A9BB29AB2FB69B3F8463009B212B2F868FCF75BFC00233B842DE0FA887B8D13449AB2B7F84830D31A9AB23B8CD31A5B
:405180009BB299B2BA883B8D13449AB2B7F84C30D31A9BB29CB23A8C388CFB69463309B225B214B201220092002201920022029202B203920493F8682A462346FCF712FDFD
:4051C00000233B8400E000BF7B8D9BB201339BB27B85FB6A0133FB627B8C013B7B84FB691B8CB7F92A201BB29A42FFF6BBAE3B8C002B4AD0012B1DD1FA887B8D13449AB2C1
:40520000B7F84830D31A9AB23B8CD31A9BB299B2BA883B8D13449AB2B7F84C30D31A9BB29AB2FB69B3F8463009B212B2F868FCF7F5FB2BE0FA887B8D13449AB2B7F84830BE
:40524000D31A9AB23B8CD31A9BB299B2BA883B8D13449AB2B7F84C30D31A9BB29CB23A8C388CFB69463309B225B214B201220092002201920022029202B203920493F8682A
:405280002A462346FCF7AEFC00E000BF3B8D9BB201339BB23B85FB695B8CB7F928201BB29A42FFF65AAE00BFB868FDF747FC0346002BF9D1BB68DB68184601F0A3FF0346A6
:4052C0001A46FB699A63B868FDF7F0FB002304E0B868FDF7EBFB48F2020318463037BD46B0BD00BF90B587B000AF78607B685B697B617B699B8C1A4613469B0013445B0023
:405300003B617B699B6B002B34D17B68DA687B695B6B01331046194601F08CFF7B68DA6807F10F0310461946012201F037FF0346012B02D04FF0FF3341E0FB7B002B0AD100
:4053400000BF7B68DB68184601F05CFF03461A467B699A630EE07B68DC687B68DB68184601F050FF0246FB7B13442046194601F061FFD3E77B68DA687B699B6B1046194692
:4053800001F058FF0023FB7314E07868FDF7B8FD0346002B04D04FF6FE72934205D001E03B690CE04FF0FF3309E000BFFB7B0133DBB2FB73FB7B012BE7D94FF0FF33184690
:4053C0001C37BD4690BD00BF80B584B000AF78607B685B69FB60FB68002B28D0FB685B68002B09D0FB685A68FB685B885B00786811461A46FDF764FAFB685B6A002B0ED0C9
:40540000FB68596A7B68DB881BB27A68128912B202FB03F35B0078681A46FDF751FA7868F9686822FDF74CFA7B6800225A611037BD4680BD80B588B000AF78607B68DA68C0
:4054400007F1100310461946022201F0A7FE0346022B02D048F20103DEE33B7C422B02D17B7C4D2B02D048F20103D5E37B6800225A8078686821FDF715FA02467B685A610C
:405480007B685B69002B02D148F20403C4E37B685B697B617B6900225A627B6900221A707B6900225A607B68DA687B69283310461946082201F072FE0346082B00D09BE35C
:4054C0007B68DA687B69203310461946042201F065FE0346042B00D08EE37B68DA6807F10C0310461946042201F058FE0346042B00D081E3FB680E33FB60FB681A2B40F097
:405500008C807B691B7843F00103DAB27B691A707B68DA687B69283310461946082201F03DFE0346082B00D066E37B6928331B889AB27B68DA807B692A331B889AB27B6835
:405540001A817B681B891BB2002B0EDA7B691B7863F07F03DAB27B691A707B681B899BB25B429BB29AB27B681A817B699B8DFB83FB8B012B00D04AE37B69DB8DFB83FB8BD2
:40558000013B172B00F23E8301A252F823F000BFF1550000055C0000055C0000F1550000055C0000055C0000055C0000F1550000055C0000055C0000055C0000055C0000C0
:4055C000055C0000055C0000055C0000055C0000055C0000055C0000055C0000055C0000055C0000055C0000055C00000F5600007B691B7843F00403DAB27B691A70FB8BEA
:40560000012202FA03F39AB27B695A8000E000BFFB8BDAB27B695A7009E1FB68352B40F20581FB68362B06D97B691B7843F00203DAB27B691A707B68DA687B692833104681
:405640001946242201F0AAFD0346242B00D0D3E27B6928331B68BB61BB69B3F5004F00D9D5E2BB699AB27B68DA807B692C331B68BB61BB69002B09DA7B691B7863F07F033A
:40568000DAB27B691A70BB695B42BB61BB69B3F5004F00D9BBE2BB699AB27B681A817B691B8EFB83FB8B012B00D0B0E27B695B8EFB83FB8B013B1F2B00F2A68201A252F817
:4056C00023F000BF45570000095C0000095C000045570000095C0000095C0000095C000045570000095C0000095C0000095C0000095C0000095C0000095C0000095C000048
:4057000063570000095C0000095C0000095C0000095C0000095C0000095C0000095C000063570000095C0000095C0000095C0000095C0000095C0000095C0000095C00006F
:40574000635700007B691B7843F00403DAB27B691A70FB8B012202FA03F39AB27B695A8000E000BFFB8BDAB27B695A707B6934331B68BB61BB69032B00F2488201A252F8DB
:4057800023F000BFFF57000095570000AF570000C95700007B695B78082B00D037E27B691B7843F00803DAB27B691A7028E07B695B78042B00D02AE27B691B7843F00803AE
:4057C000DAB27B691A701BE07B695B780F2B40F21E827B695B78182B00F019827B691B7843F01003DAB27B691A707B691B7803F00203002B02D03623FB6001E000E000BF15
:40580000FB8BDAB27B695A707B6944331B68BB61BB69002B0BD07B695B881A46BB699A4205D9BB699AB27B695A8000E0E4E17B691B7803F00403002B00F08F807B68DB68EB
:40584000FA681846114601F0F5FC7B695B885B0078681946FDF726F802467B695A607B695B68002B02D148F20403D5E17B691B7803F00103002B38D00023FB832FE07B6806
:40588000DA687B69283310461946032201F086FC0346032B00D0AFE17B695A68FB8B5B0013447A692A32127802F0F802120291B27A6928320132127802F0FC02D20092B259
:4058C0000A4391B27A6928321278D208D2B292B20A4392B292B21A80FB8B0133FB837B695B88FA8B9A42CAD337E00023FB832FE07B68DA687B69283310461946042201F04C
:405900004DFC0346042B00D076E17B695A68FB8B5B0013447A692A32127802F0F802120291B27A6928320132127802F0FC02D20092B20A4391B27A6928321278D208D2B2E0
:4059400092B20A4392B292B21A80FB8B0133FB837B695B88FA8B9A42CAD37B691B7803F01003002B44D07B68DB68FA681846114601F060FC7B68DA687B6910331046194630
:40598000042201F00BFC0346042B00D034E17B68DA687B69143310461946042201F0FEFB0346042B00D027E17B68DA687B69183310461946042201F0F1FB0346042B00D0B3
:4059C0001AE17B691B7803F00203002B0CD07B68DA687B691C3310461946042201F0DEFB0346042B37D007E17B690022DA6132E07B695B78102B15D17B691B7843F01003EA
:405A0000DAB27B691A707B694FF4F8421A617B694FF478725A617B691F229A617B690022DA6118E07B695B78202B14D17B691B7843F01003DAB27B691A707B694FF47F0225
:405A40001A617B694FF47F425A617B69FF229A617B690022DA617B691B7803F01003002B00F0C5807B690022DA727B6900221A737B6900225A737B691B69002B2AD07B69C1
:405A80001B69FF2B13D87B691B69BB610BE07B69DB7ADBB2DBB2013BDBB2DAB27B69DA72BB695B00BB61BB697F2BF0D912E07B691B69BB610BE07B69DB7ADBB2DBB20133EC
:405AC000DBB2DAB27B69DA72BB695B08BB61BB69FF2BF0D87B695B69002B2AD07B695B69FF2B13D87B695B69BB610BE07B691B7BDBB2DBB2013BDBB2DAB27B691A73BB69ED
:405B00005B00BB61BB697F2BF0D912E07B695B69BB610BE07B691B7BDBB2DBB20133DBB2DAB27B691A73BB695B08BB61BB69FF2BF0D87B699B69002B2AD07B699B69FF2B8C
:405B400013D87B699B69BB610BE07B695B7BDBB2DBB2013BDBB2DAB27B695A73BB695B00BB61BB697F2BF0D912E07B699B69BB610BE07B695B7BDBB2DBB20133DBB2DAB23D
:405B80007B695A73BB695B08BB61BB69FF2BF0D87B69DB69002B2AD07B69DB69FF2B13D87B69DB69BB610BE07B699B7BDBB2DBB2013BDBB2DAB27B699A73BB695B00BB61CD
:405BC000BB697F2BF0D912E07B69DB69BB610BE07B699B7BDBB2DBB20133DBB2DAB27B699A73BB695B08BB61BB69FF2BF0D87B6803221A8000230FE07868FFF7E5FB48F23E
:405C0000020309E000BF02E000BF00E000BF7868FFF7DAFB48F2030318462037BD4680BD80B590B000AF78600B467B807B685B69BB62BB6A2833FB6300237B87BB6A5B7890
:405C4000013B1F2B00F25E8601A252F823F000BFD15C00000569000005690000375E00000569000005690000056900004162000005690000056900000569000005690000C6
:405C800005690000056900000569000013670000056900000569000005690000056900000569000005690000056900008D6700000569000005690000056900000569000072
:405CC000056900000569000005690000E96800007B685B69BB62BB6A2833FB6300237B879AE07B68DA6807F1240310461946042201F054FA0346042B02D0002300F003BE4C
:405D0000802387F8393018E0BB6A5A6897F8241097F839300B40DBB2002B01D0022300E0002313441A88FB6B1A8097F839305B0887F83930FB6B0233FB6397F83930002BEA
:405D4000E2D1802387F8393018E0BB6A5A6897F8251097F839300B40DBB2002B01D0022300E0002313441A88FB6B1A8097F839305B0887F83930FB6B0233FB6397F8393021
:405D8000002BE2D1802387F8393018E0BB6A5A6897F8261097F839300B40DBB2002B01D0022300E0002313441A88FB6B1A8097F839305B0887F83930FB6B0233FB6397F81E
:405DC0003930002BE2D1802387F8393018E0BB6A5A6897F8271097F839300B40DBB2002B01D0022300E0002313441A88FB6B1A8097F839305B0887F83930FB6B0233FB6303
:405E000097F83930002BE2D17B8F20339BB27B877B8820339BB27B807B68DB88B7F902201BB29A4204DAB7F93A30002B7FF759AF7B8F00F068BDBB6A1B7803F00803002BE0
:405E400000F079816DE1BB6A1B7803F02003002B55D03DE0FB6B9A1CFA63BA6A5168BA6A927A1209D2B252000A4412881A80BB6A1B89013B9AB2BB6A1A817B8F9BB201331A
:405E80009BB27B877B889BB201339BB27B80BB6A1B89002B1CD0FB6B9A1CFA63BA6A5168BA6A927A02F00F0252000A4412881A80BB6A1B89013B9AB2BB6A1A817B8F9BB222
:405EC00001339BB27B877B889BB201339BB27B80BB6A1B89002B0AD0B7F93A301E2B06DC7B68DB88B7F902201BB29A42B2DBBB6A1B89002B00F08B807B8F00F004BDBB6A23
:405F00001B7803F04003002B00F081804CE07B68DA6807F1200310461946012201F03EF90346012B02D0002300F0EDBCFB6B9A1CFA63BA6A516897F820201209D2B25200F7
:405F40000A4412881A80BB6A1B89013B9AB2BB6A1A817B8F9BB201339BB27B877B889BB201339BB27B80BB6A1B89002B1CD0FB6B9A1CFA63BA6A516897F8202002F00F02E0
:405F800052000A4412881A80BB6A1B89013B9AB2BB6A1A817B8F9BB201339BB27B877B889BB201339BB27B80BB6A1B89002B0AD0B7F93A301E2B06DC7B68DB88B7F902202B
:405FC0001BB29A42A3DBBB6A1B89002B02D07B8F00F099BC7B68DB68184601F013F903461A46BB6A1B6AD31A03F00103002B0ED07B68DA6807F1200310461946012201F09B
:40600000CDF80346012B02D0002300F07CBCBB6A1B7823F06003DAB2BB6A1A707B68DA6807F1200310461946022201F0B7F80346022B02D0002300F066BC97F82030002B60
:4060400010D097F820309AB2BB6A1A8197F82120BB6A9A72BB6A1B7843F02003DAB2BB6A1A705EE097F82130002B19D17B68DB88B7F902201BB29A4253DA7B68DB889AB258
:406080007B88D31A9AB2BB6A1A81BB6A00229A72BB6A1B7843F02003DAB2BB6A1A7040E097F82130012B02D17B8F00F02CBC97F82130022B29D17B68DA6807F120031046CA
:4060C0001946022201F06AF80346022B02D0002300F019BC97F820309AB297F821309BB27968C98889B201FB03F39BB213449AB2BB6A1A81BB6A00229A72BB6A1B7843F0F5
:406100002003DAB2BB6A1A700BE097F821309AB2BB6A1A81BB6A1B7843F04003DAB2BB6A1A707B68DB88B7F902201BB29A42FFF68AAE7B8FE7E375E07B68DA6807F11C036E
:4061400010461946042201F029F80346042B01D00023D8E3FB6B9A1CFA63BA6A51683A7F1209D2B252000A4412881A80FB6B9A1CFA63BA6A51683A7F02F00F0252000A44D7
:4061800012881A80FB6B9A1CFA63BA6A51687A7F1209D2B252000A4412881A80FB6B9A1CFA63BA6A51687A7F02F00F0252000A4412881A80FB6B9A1CFA63BA6A5168BA7F34
:4061C0001209D2B252000A4412881A80FB6B9A1CFA63BA6A5168BA7F02F00F0252000A4412881A80FB6B9A1CFA63BA6A5168FA7F1209D2B252000A4412881A80FB6B9A1C68
:40620000FA63BA6A5168FA7F02F00F0252000A4412881A807B8F08339BB27B877B8808339BB27B807B68DB88B7F902201BB29A4204DAB7F93A30182B7FF77EAF7B8F62E3CC
:40624000BB6A1B7803F00803002B00F0218115E1BB6A1B7803F02003002B30D01AE0FB6B9A1CFA63BA6A5168BA6A927A52000A4412881A80BB6A1B89013B9AB2BB6A1A8157
:406280007B8F9BB201339BB27B877B889BB201339BB27B80BB6A1B89002B0AD0B7F93A301F2B06DC7B68DB88B7F902201BB29A42D5DBBB6A1B89002B61D07B8F23E3BB6A59
:4062C0001B7803F04003002B59D027E07B68DA6807F1180310461946012200F05FFF0346012B01D000230EE3FB6B9A1CFA63BA6A51683A7E52000A4412881A80BB6A1B8917
:40630000013B9AB2BB6A1A817B8F9BB201339BB27B877B889BB201339BB27B80BB6A1B89002B0AD0B7F93A301F2B06DC7B68DB88B7F902201BB29A42C8DBBB6A1B89002B03
:4063400001D07B8FDFE27B68DB68184600F05AFF03461A46BB6A1B6AD31A03F00103002B0DD07B68DA6807F1180310461946012200F014FF0346012B01D00023C3E2BB6A2F
:406380001B7823F06003DAB2BB6A1A707B68DA6807F1180310461946022200F0FFFE0346022B01D00023AEE23B7E002B0ED03B7E9AB2BB6A1A817A7EBB6A9A72BB6A1B7839
:4063C00043F02003DAB2BB6A1A7057E07B7E002B19D17B68DB88B7F902201BB29A424DDA7B68DB889AB27B88D31A9AB2BB6A1A81BB6A00229A72BB6A1B7843F02003DAB264
:40640000BB6A1A703AE07B7E012B01D17B8F7AE27B7E022B27D17B68DA6807F1180310461946022200F0BAFE0346022B02D048F2020368E23B7E9AB27B7E9BB27968C98811
:4064400089B201FB03F39BB213449AB2BB6A1A81BB6A00229A72BB6A1B7843F02003DAB2BB6A1A700AE07B7E9AB2BB6A1A81BB6A1B7843F04003DAB2BB6A1A707B68DB8805
:40648000B7F902201BB29A42FFF6E2AE7B8F3AE23DE07B68DA6807F1140310461946042200F07CFE0346042B01D000232BE2FB6B9A1CFA63BA6A51683A7D52000A44128860
:4064C0001A80FB6B9A1CFA63BA6A51687A7D52000A4412881A80FB6B9A1CFA63BA6A5168BA7D52000A4412881A80FB6B9A1CFA63BA6A5168FA7D52000A4412881A807B8FD5
:4065000004339BB27B877B8804339BB27B807B68DB88B7F902201BB29A4203DAB7F93A301C2BB6DD7B8FEEE17B68DA6807F1100310461946042200F031FE0346042B01D075
:406540000023E0E1BB6ADB7A5BB2002B0CDA3B8A1A46BB6A1B691A40BB6ADB7A5BB25B4202FA03F3FB860AE03B8A1A46BB6A1B691A40BB6ADB7A5BB222FA03F3FB86BB6A8F
:406580001B7B5BB2002B0CDA3B8A1A46BB6A5B691A40BB6A1B7B5BB25B4202FA03F3BB860AE03B8A1A46BB6A5B691A40BB6A1B7B5BB222FA03F3BB86BB6A5B7B5BB2002B87
:4065C0000CDA3B8A1A46BB6A9B691A40BB6A5B7B5BB25B4202FA03F37B860AE03B8A1A46BB6A9B691A40BB6A5B7B5BB222FA03F37B86FB6B9A1CFA63FA8E02F0F8021202C7
:4066000091B2BA8E02F0FC02D20092B20A4391B27A8E02F0F802D21092B20A4392B292B21A80BB6ADB7A5BB2002B0CDA7B8A1A46BB6A1B691A40BB6ADB7A5BB25B4202FA90
:4066400003F3FB860AE07B8A1A46BB6A1B691A40BB6ADB7A5BB222FA03F3FB86BB6A1B7B5BB2002B0CDA7B8A1A46BB6A5B691A40BB6A1B7B5BB25B4202FA03F3BB860AE034
:406680007B8A1A46BB6A5B691A40BB6A1B7B5BB222FA03F3BB86BB6A5B7B5BB2002B0CDA7B8A1A46BB6A9B691A40BB6A5B7B5BB25B4202FA03F37B860BE07B8A1A46BB6A09
:4066C0009B691A40BB6A5B7B5BB222FA03F3DBB27B86FB6B9A1CFA63FA8E02F0F802120291B2BA8E02F0FC02D20092B20A4391B27A8E02F0F802D21092B20A4392B292B283
:406700001A807B8802339BB27B807B8F02339BB27B877B68DB88B7F902201BB29A4204DAB7F93A301E2B7FF7FFAE7B8FEBE07B68DA6807F10C0310461946032200F02EFD96
:406740000346032B01D00023DDE0FB6B9A1CFA63BA7B02F0F802120291B27A7B02F0FC02D20092B20A4391B23A7BD208D2B292B20A4392B292B21A807B889BB201339BB2DE
:406780007B807B8F9BB201339BB27B877B68DB88B7F902201BB29A4203DAB7F93A301F2BC5DD7B68DB88B7F902201BB29A4218DB7B8803F00303002B13D07B68D9687B887B
:4067C00003F0030307F10C02084611461A4600F0E5FC02467B8803F003039A4201D0002391E07B8F8FE07B68DA6807F1080310461946042200F0D2FC0346042B01D0002399
:4068000081E0BB6ADB7A5BB2002B0BDABB6A1A69BB681A40BB6ADB7A5BB25B4202FA03F33B8609E0BB6A1A69BB681A40BB6ADB7A5BB222FA03F33B86BB6A1B7B5BB2002B09
:406840000BDABB6A5A69BB681A40BB6A1B7B5BB25B4202FA03F3FB8509E0BB6A5A69BB681A40BB6A1B7B5BB222FA03F3FB85BB6A5B7B5BB2002B0BDABB6A9A69BB681A4092
:40688000BB6A5B7B5BB25B4202FA03F3BB8509E0BB6A9A69BB681A40BB6A5B7B5BB222FA03F3BB85FB6B9A1CFA633A8E02F0F802120291B2FA8D02F0FC02D20092B20A43BB
:4068C00091B2BA8D02F0F802D21092B20A4392B292B21A807B889BB201339BB27B807B8F9BB201339BB27B877B68DB88B7F902201BB29A4204DAB7F93A301F2B7FF773AF4C
:406900007B8F00E07B8F1BB218464037BD4680BD80B588B000AF78607B685B69FB60FB685B6A002B01D00023D0E07B68DB881BB27A68128912B202FB03F35B00BB607868F7
:40694000B968FBF7AFFF0246FB685A62FB685B6A002B02D148F20403B8E07B68DA68FB681B6A1046194600F065FCFB6800221A81FB6800229A72FB682833FB61FB681B781C
:40698000DBB25BB2002B46DA00237B82FB685B6ABB6138E00023BB820023FB8227E0B7F91630002B11D1B7F9143078681946FFF737F90346FB82B7F91630002B02D148F21F
:4069C000020383E0FB682833FB61BB699A1CBA61FA69911CF96112881A80BB8A9BB201339BB2BB82FB8A9BB2013B9BB2FB827B68DB88B7F914201BB29A42D0DB7B8A9BB28A
:406A000001339BB27B827B681B89B7F912201BB29A42BFDB59E07B681B899BB2013B9BB27B82FB685A6A7B68DB881BB27968098909B2013901FB03F35B001344BB6140E017
:406A40000023BB820023FB8227E0B7F91630002B11D1B7F9143078681946FFF7E1F80346FB82B7F91630002B02D148F202032DE0FB682833FB61BB699A1CBA61FA69911CE5
:406A8000F96112881A80BB8A9BB201339BB2BB82FB8A9BB2013B9BB2FB827B68DB88B7F914201BB29A42D0DB7B8A9BB2013B9BB27B827B68DB881BB29B005B42BA69134405
:406AC000BB61B7F91230002BBADA002318462037BD4680BDB0B58EB006AFF860B96011461A460B46FB801346BB80BB685B697B61BB68DB88B7F938201BB29A4206DABB68D4
:406B00001B89B7F93C201BB29A4201DB0023F2E1B7F93820B7F930301A44BB68DB881BB29A4206DDBB68DB889AB23B8FD31A9BB23B86B7F93C20B7F934301A44BB681B89C6
:406B40001BB29A4206DDBB681B899AB2BB8FD31A9BB2BB867B695B6A002B1CD0BB68D8887B695B6AB7F90610B7F90450B7F93040B7F934200092B7F938200192B7F93C209E
:406B8000029202B203920493F8682A462346FBF729F80023AFE1BB68DA687B691B6A1046194600F047FB7B6900221A817B6900229A727B691B78DBB25BB2002B80F2CD80FF
:406BC0000023BB83C0E00023FB83B0E0B7F91E30B8681946FFF724F803467B82B7F91230002B02D148F2020385E1B7F91C20B7F93C309A42C0F29680B7F91C20B7F93C1065
:406C0000B7F934300B449A4280F28C80B7F91E20B7F93810B7F930300B449A4280F28280B7F91E20B7F912301A44B7F938309A4278DBB7F91E20B7F938309A4205DA3A8FF3
:406C4000FB8BD31A9BB29BB200E000233B827A8A3B8AD31A9BB27B83B7F91E20B7F910301A44B7F91A301A44B7F93810B7F930300B449A420ADD3A8F3B8E13449AB2FB8BDD
:406C8000D31A9AB23B8AD31A9BB27B83B7F91A30012B1ED1FA88FB8B13449AB23B8A13449AB23B8FD31A9BB299B2BA88BB8B13449AB2BB8FD31A9BB298B2B7F910207B696A
:406CC000143233F8123009B202B2F868FAF7A6FE28E0FA88FB8B13449AB23B8A13449AB23B8FD31A9BB299B2BA88BB8B13449AB2BB8FD31A9BB29AB27B69283309B215B257
:406D0000B7F91A4001220092B7F91020019200220292B7F9122003920493F8682A462346FAF760FFFA8B7B8A13449BB2FB83BB68DB88B7F91E201BB29A42FFF647AFBB8BDA
:406D40009BB201339BB2BB83BB681B89B7F91C201BB29A42FFF637AFCCE0BB681B899BB2013B9BB2BB83C0E00023FB83B0E0B7F91E30B8681946FEF753FF03467B82B7F9BE
:406D80001230002B02D148F20203B4E0B7F91C20B7F93C309A42C0F29680B7F91C20B7F93C10B7F934300B449A4280F28C80B7F91E20B7F93810B7F930300B449A4280F2DC
:406DC0008280B7F91E20B7F912301A44B7F938309A4278DBB7F91E20B7F938309A4205DA3A8FFB8BD31A9BB29BB200E000233B827A8A3B8AD31A9BB27B83B7F91E20B7F916
:406E000010301A44B7F91A301A44B7F93810B7F930300B449A420ADD3A8F3B8E13449AB2FB8BD31A9AB23B8AD31A9BB27B83B7F91A30012B1ED1FA88FB8B13449AB23B8ACC
:406E400013449AB23B8FD31A9BB299B2BA88BB8B13449AB2BB8FD31A9BB298B2B7F910207B69143233F8123009B202B2F868FAF7D5FD28E0FA88FB8B13449AB23B8A13444F
:406E80009AB23B8FD31A9BB299B2BA88BB8B13449AB2BB8FD31A9BB29AB27B69283309B215B2B7F91A4001220092B7F91020019200220292B7F9122003920493F8682A46B5
:406EC0002346FAF78FFEFA8B7B8A13449BB2FB83BB68DB88B7F91E201BB29A42FFF647AFBB8B9BB2013B9BB2BB83B7F91C30002BBFF63AAF002318462037BD46B0BD00BFD1
:406F000080B483B000AF78604FF0FF3318460C37BD465DF8047B704780B400AFBD465DF8047B704780B485B000AF7860524BFB6095E0FB689B8803F00103002B40F08C8011
:406F40007B681B78722B04D0772B26D0612B52D07EE0FB684FF481729A8016E07B681B782B2B02D0622B08D00FE0FB689B8843F004039AB2FB689A8007E0FB689B8843F0C2
:406F800010039AB2FB689A8000BF7B6801337B607B681B78002BE1D15CE0FB6840F204429A8020E07B681B78622B0CD0782B12D02B2B00D017E0FB689B8843F002039AB235
:406FC000FB689A800FE0FB689B8843F010039AB2FB689A8007E0FB689B8843F400739AB2FB689A8000BF7B6801337B607B681B78002BD7D12EE0FB680C229A8020E07B681A
:407000001B78622B0CD0782B12D02B2B00D017E0FB689B8843F002039AB2FB689A800FE0FB689B8843F010039AB2FB689A8007E0FB689B8843F400739AB2FB689A8000BF08
:407040007B6801337B607B681B78002BD7D101E000230AE0FB6808E0FB681033FB60FB68064A9342FFF465AF002318461437BD465DF8047B704700BFA0D1FF1FD0D1FF1FA5
:4070800080B584B000AFF860B9607A60BB689B8803F00403002B07D0FB681B7803F00103002B01D1002328E0FB685B69002B07D0FB685B69B868796898470346002B01D1A0
:4070C00000231AE0BB68FA681A60BB680022DA60BB689B8843F001039AB2BB689A80FB681B7803F00403002B06D0BB689B8843F040039AB2BB689A80FF2318461037BD46EF
:4071000080BD00BF80B584B000AF786039603868FFF708FFB860BB68002B01D1002316E00D4BFB600EE0FB681B681846B9687A68FFF7A6FF0346002B01D0BB6807E0FB68A7
:407140000433FB60FB68054A9342ECD3002318461037BD4680BD00BF3481FF1F3881FF1F80B582B000AF78607B68002B05D07B689B8803F00103002B00D10CE07B681B68AA
:407180009B69002B04D07B681B689B69786898477B6800229A800837BD4680BD80B586B000AFF860B9607A60FB68002B05D0FB689B8803F00303032B01D000231DE0FB683C
:4071C0001B68DB69002B01D1002316E0FB681B68DB697A68F868B968984703467B617B69002B01D1002308E0FB68DB681A467B6913441A46FB68DA607B6918461837BD4663
:4072000080BD00BF80B483B000AF78607B68002B05D07B689B8803F00103002B01D1002301E07B68DB6818460C37BD465DF8047B704700BF80B582B000AF786039607B6805
